:020000040800F2
:100000006004002001010008070C00088D0B0008A7
:10001000050C000891010008910E00080000000086
:100020000000000000000000000000002B0C000891
:100030009301000800000000290C00082D0C0008A6
:100040001B0100081B0100081B0100081B01000820
:100050001B0100081B0100081B0100081B01000810
:100060001B0100081B0100081B0100081B01000800
:100070001B0100081B0100081B0100081B010008F0
:100080001B0100081B0100081B0100081B010008E0
:100090001B0100081B0100081B0100081B010008D0
:1000A0001B0100081B0100081B0100081B010008C0
:1000B0001B0100081B0100081B0100081B010008B0
:1000C0001B0100081B0100081B0100081B010008A0
:1000D0001B0100081B0100081B0100081B01000890
:1000E0001B0100081B0100081B010008DFF80CD0F1
:1000F00000F03CF800480047AD0F00086004002005
:100100000648804706480047FEE7FEE7FEE7FEE7B1
:10011000FEE7FEE7FEE7FEE7FEE7FEE7810C0008EC
:10012000ED0000080649074A0868504343F23902C7
:10013000104408604008704701490860704700009B
:100140001C0000206D4EC641D2B201E000F8012B28
:10015000491EFBD270470022F6E710B513460A4647
:1001600004461946FFF7F0FF204610BD064C074D28
:1001700006E0E06840F0010394E807009847103477
:10018000AC42F6D3FFF7B6FF38100008581000084D
:10019000FEE7704770B5044600F0ECF80546601CB9
:1001A00002D004480078044400F0E4F8401BA04268
:1001B000FAD370BD0C0000202DE9F84FDFF890A1B4
:1001C00000220AF1040B144601274FF00F090BF12E
:1001D000040E00BF0B6807FA04F52B40AB4274D144
:1001E000DFF870C14E68A6EB0C0866452BD00DDC1D
:1001F000032E34D005DC36B3012E19D0022E2FD1B8
:100200001BE0112E16D0122E2AD119E0B8F5881F46
:1002100019D006DCB8F5803F15D0B8F5801F1FD186
:1002200011E0B8F5001F0ED0B8F5041F18D10AE090
:10023000CA6815E0CA68121D12E0CA6808320FE0E9
:10024000CA680C320CE08A682AB1012A4FF0080211
:1002500003D0456104E0042202E0056100E00022D1
:10026000FF2B01D8064601E000F104064FEA8405A1
:1002700001D9A5F12005D6F800C009FA05F82CEA45
:10028000080C02FA05F54CEA050CC6F800C04D68EA
:10029000ED0057D5304DAE6946F00106AE61AD694F
:1002A00024F0030605F0010500952C4D06EB050C26
:1002B000DCF80850A6074FEA167809FA08F6B543A5
:1002C000274EB04202D1002610E03BE0254EB0425E
:1002D00001D101260AE0244EB04201D1022605E0F8
:1002E000224EB04201D1032600E0042606FA08F6A9
:1002F0002E43CCF808604D68DAF80060ED035546EF
:1003000001D51E4300E09E432E604D68DBF800607F
:10031000AD035D4601D51E4300E09E432E604D684F
:10032000DEF80060ED02754601D51E4300E09E43F5
:100330002E604D68AD020E4D2E6801D51E4300E0C3
:100340009E432E60641C102CFFF444AFBDE8F88F70
:1003500000040140000011100010024000000140A4
:1003600000080140000C0140001001400014014051
:100370000C04014001488068704700000C00002018
:100380000248816802781144816070470C000020A7
:10039000074810B5016841F010010160032000F02A
:1003A00067F8002000F006F800F024F8002010BDE7
:1003B0000020024070B50D4D04464FF47A71287844
:1003C000B1FBF0F00A490968B1FBF0F000F0D0FA97
:1003D00048B9102C07D200222146501E00F028F800
:1003E00000206C6070BD012070BD00000C0000207A
:1003F000180000200C4808B5816941F001018161B5
:10040000816901F001010091C16941F08051C16130
:10041000C06900F0805000900448416821F0E0611C
:1004200041F00071416008BD001002400000014031
:10043000F0B40E4B1B680C46C3F30223C3F107054F
:10044000042D00D90425191D072901D2002300E03D
:10045000DB1E012606FA05F1491E214099409E4007
:10046000761E16403143F0BC00F0CEBB0CED00E030
:10047000064900F0070208684FF6FF03184040EAFB
:100480000220034A10430860704700000CED00E0B2
:100490000000FA052DE9F047DFF8548105460E46C5
:1004A000D8F8000000F00700B0420CD2D8F80010D5
:1004B00021F007013143C8F80010D8F8000000F01F
:1004C0000700B0426FD128684A4C810712D5400717
:1004D00003D5606840F4E06060602878000703D5C9
:1004E000606840F4605060606068A96820F0F000C7
:1004F000084360602878C00744D06868012816D097
:100500002168022816D0890700294CDA616821F099
:10051000030101436160FFF72DFF6968074641F25F
:10052000883001290ED00229814618D026E02168A2
:100530008903E9E78901E7E7FFF71CFFC11B49458C
:1005400001D918E081466068C0F381000128F3D129
:1005500018E000BFFFF70EFFC11B49450BD86068CC
:10056000C0F381000228F5D10CE000BFFFF702FFC5
:10057000C11B494502D90320BDE8F087606810F02F
:100580000C0FF3D1D8F80010404601F00701B1423A
:100590000BD9016821F0070131430160006800F0C8
:1005A0000700B04201D00120E6E72878400705D5D2
:1005B0006068E96820F4E06008436060287800071C
:1005C00006D56068296920F4605040EAC100606087
:1005D00000F016F86168084AC1F30311515CC84085
:1005E000064908600020FFF7E5FE0020C4E7000090
:1005F00000200240001002402810000818000020CF
:1006000012A185B00FC98DE80F0014A0144A00682C
:1006100004905168134801F00C03042B10D0082BF0
:100620000ED1C1F38343C9031DF803000AD55168F5
:1006300004AAC1F34041515C0A4A5043B0FBF1F0B7
:1006400005B0704708494843FAE700000203040573
:10065000060708090A0B0C0D0E0F1010010200000E
:100660000010024000127A0000093D002DE9F84F09
:1006700004460078B94DC00748D06868C0F38100CF
:10068000012807D06868C0F38100022809D1686892
:10069000C00306D52868800338D5606800286FD06D
:1006A00034E06068B0F5803F0BD010B1B0F5A02FFA
:1006B00011D0286820F480302860286820F4802039
:1006C00002E0286840F480302860606888B1FFF755
:1006D00051FE064609E0286840F480202860F0E7D3
:1006E000FFF748FE801B642875D828688003F7D57B
:1006F0000CE0FFF73FFE064605E000BFFFF73AFEBD
:10070000801B6428F0D828688003F7D42078944EA2
:1007100080074FF001094FF000083BD5686810F0E2
:100720000C0F07D06868C0F38100022809D16868FF
:10073000C00306D42868800714D5206901281FD17A
:1007400010E02069B0B1C6F80090FFF713FE07462D
:1007500005E000BFFFF70EFEC01B0228C4D82868C2
:100760008007F7D52868616920F0F80040EAC100E9
:1007700028600FE0C6F80080FFF7FCFD074606E0A2
:10078000E9E000BFFFF7F6FDC01B022823D8286868
:100790008007F7D4207800072CD57248A169D9B119
:1007A000C0F80090FFF7E6FD074604E0FFF7E2FD22
:1007B000C01B02280FD8686A8007F7D56A484FF433
:1007C000FA510068B0FBF1F0009000BF0098411EA4
:1007D0000091FAD20EE080E0C0F80080FFF7CAFD79
:1007E000074604E0FFF7C6FDC01B022875D8686AFB
:1007F0008007F7D42078400760D5E8690027C0005B
:1008000008D4E86940F08050E861E869012700F009
:100810008050009055480168C90513D4016883468B
:1008200041F480710160FFF7A5FD824606E000BF3C
:10083000FFF7A0FDA0EB0A0064284ED8DBF800000B
:10084000C005F5D5E06801280AD008B1052813D005
:10085000286A20F001002862286A20F0040002E0E3
:10086000286A40F001002862E06841F2883B98B1B4
:10087000FFF780FD82460BE0286A40F00400286202
:10088000EEE700BFFFF776FDA0EB0A0159455AD805
:10089000286A8007F6D50CE0FFF76CFD824605E07C
:1008A000FFF768FDA0EB0A0159454CD8286A80077C
:1008B000F6D41FB1E86920F08050E861E06988B3A0
:1008C0006968C1F38101022945D00228C6F8608019
:1008D00004D0FFF74FFD044638E034E0FFF74AFD4F
:1008E000074604E0FFF746FDC01B02282BD8286806
:1008F0008001F7D4206AB0F5803F05D16868A1680F
:1009000020F4003008436860D4E9080108436968AE
:1009100021F4741108436860C6F86090FFF72AFD5F
:10092000044606E015E000BFFFF724FD001B022887
:1009300009D828688001F7D50BE000BFFFF71AFD42
:10094000001B022802D90320BDE8F88F2868800127
:10095000F4D40020F8E70120F6E700000010024080
:100960000000424280044242180000200070004013
:1009700010B5401EB0F1807F01D3012010BD4FF0B3
:10098000E02460610F21601700F03EF90020A061B3
:1009900007202061002010BD30B590F83C20012ACE
:1009A00020D0012280F83C20022380F83D300368EB
:1009B0005C6824F070045C6003685C680D682C431C
:1009C0005C6003689C6824F080049C6003689C68F9
:1009D00049680C439C6080F83D20002180F83C1061
:1009E000084630BD022030BD00B585B00021009121
:1009F0000191029103910068B0F1804F11D10A4832
:100A0000816941F0040181618069694600F0040058
:100A100004900E2000900220019003900348FFF7FD
:100A2000CBFB05B000BD00000010024000080140F3
:100A300070B5044690F83C000D4601280DD0012603
:100A400084F83C60022084F83D0042B1042A18D0AA
:100A5000082A2AD00C2A4DD139E0022070BD206826
:100A600000F074F92068816941F008018161206813
:100A7000816921F004018161206881692A6911433B
:100A800011E0206800F08AF92068816941F4006172
:100A900081612068816921F48061816120688169B8
:100AA0002A6941EA0221816124E0206800F0A2F96C
:100AB0002068C16941F00801C1612068C16921F065
:100AC0000401C1612068C1692A69114311E02068ED
:100AD00000F0BCF92068C16941F40061C16120687F
:100AE000C16921F48061C1612068C1692A6941EA54
:100AF0000221C16184F83D60002084F83C0070BD93
:100B000010B5040003D094F83D0010B107E00120B7
:100B100010BD002084F83C00204600F00DF80220B3
:100B200084F83D00211D206800F0CEF8012084F8F3
:100B30003D00002010BD000008B50068B0F1804FF6
:100B400008D10548C16941F00101C161C06900F0E7
:100B50000100009008BD00000010024010B50446DE
:100B60000068012200F0E6F807492068884203D1B6
:100B7000416C41F4004141642068016841F0010189
:100B80000160002010BD0000002C0140FEE70000C5
:100B900010B58AB0002407941C2168460894FFF71A
:100BA000DAFA17484FF0804101604721C0E901148B
:100BB00040F2E731C0E903148461FFF7A1FF079415
:100BC00007A90F480894FFF7E7FE6020CDE900046D
:100BD000022002900422694604940948FFF728FF86
:100BE000082269460648FFF723FF0C22694604489D
:100BF000FFF71EFF0248FFF7F7FE0AB010BD000026
:100C000020000020FEE770470907090E002806DAD9
:100C100000F00F0000F1E02080F8141D704700F193
:100C2000E02080F80014704770477047FFF7A8BBBA
:100C300030B58FB028216846FFF78DFA14210AA835
:100C4000FFF789FA01210804CDE90010002402947D
:100C500002250491CDE907504FF4E0100990684651
:100C6000FFF704FD0F20CDE90A056802CDE90C402D
:100C700002210AA80E94FFF70DFC0FB030BD000052
:100C80000D48016841F00101016041680B4A1140C3
:100C9000416001680A4A11400160016821F4802125
:100CA0000160416821F4FE0141604FF41F01816041
:100CB0000449C00308607047001002400000FFF8BC
:100CC000FFFFF6FE08ED00E0F0B50268164B174C8A
:100CD000174D4FF08047984205D0B84203D0A0424C
:100CE00001D0A84203D122F070064A6832439842EC
:100CF00005D0B84203D0A04201D0A84203D122F4CB
:100D00004074CA68224322F080044A692243026088
:100D10008A68C2620A688262984201D109690163E5
:100D200001214161F0BD0000002C014000040040A1
:100D30000008004010B50123046A8B409C43046204
:100D4000036A8A401343036210BD000030B5026A93
:100D500022F001020262026A4368846924F073058A
:100D60000C682C4322F002058A682A430A4DA842E7
:100D70000BD122F00805CA6823F440732A434D6959
:100D800022F004021D438B692B4343608461496850
:100D90004163026230BD0000002C014030B5026AA0
:100DA00022F010020262026A436884690D6824F42A
:100DB000E64444EA05248D6822F0200242EA051246
:100DC0000B4DA8420ED1CD6822F0800242EA0512F6
:100DD0004D6923F4406343EA85038D6922F04002A4
:100DE00043EA85034360846149688163026230BDE0
:100DF000002C014030B5026A22F480720262036A5C
:100E00004268C46923F4007324F073050C682C4312
:100E10008D6843EA05230C4DA8420ED1CD6823F41A
:100E2000006343EA05234D6922F4405242EA051269
:100E30008D6923F4806342EA05124260C461496807
:100E4000C163036230BD0000002C014030B5026A6E
:100E500022F480520262046A4268C3690D6823F476
:100E6000E64343EA05238D6824F4005444EA05343C
:100E7000064DA84204D14D6922F4804242EA85120F
:100E80004260C36149680164046230BD002C0140C6
:100E9000FEE702E008C8121F08C1002AFAD1704715
:100EA0007047002001E001C1121F002AFBD17047EA
:100EB00070B5124C4FF47A75A07830B1FFF732F963
:100EC00090FBF5F105FB1100208120790028208995
:100ED00005D0401E0004000C208106D006E0401C16
:100EE00080B22081A84201D1012020710120FFF7AA
:100EF00051F9034920890968086470BD0000002089
:100F00002000002070B5124C4FF47A75607830B133
:100F1000FFF708F990FBF5F105FB1100608160799E
:100F20000028608905D0401E0004000C608106D0B6
:100F300006E0401C80B26081A84201D101206071AE
:100F40000120FFF727F9034960890968C86370BD6C
:100F5000000000202000002070B5124C4FF47A757C
:100F6000207830B1FFF7DEF890FBF5F105FB1100BA
:100F7000E080E0780028E08805D0401E0004000CE6
:100F8000E08006D006E0401C80B2E080A84201D19B
:100F90000120E0700120FFF7FDF80349E0880968AF
:100FA000886370BD000000202000002086B0FFF79D
:100FB000EFF9FFF73DFE002001900390174881698B
:100FC00041F020018161816901F020010491816972
:100FD00041F0040181618069694600F004000490D9
:100FE00010200090012002900D48FFF7E5F8FFF770
:100FF000CFFD04210B48FFF7B1FD08210948FFF799
:10100000ADFD0C210748FFF7A9FD00BFFFF7A4FFC6
:10101000FFF74EFFFFF776FFF8E7000000100240F1
:101020000008014020000020000000000000000037
:1010300001020304060708095810000800000020F8
:1010400020000000920E0008781000082000002008
:1010500040040000A20E0008000000000000E703AA
:10106000F40100000100000010000000000000007A
:0810700000A24A040000000088
:04000005080000ED02
:00000001FF
